{
  "contractName": "MultiSigWallet",
  "abi": [
    {
      "constant": true,
      "inputs": [
        {
          "name": "",
          "type": "uint256"
        }
      ],
      "name": "owners",
      "outputs": [
        {
          "name": "",
          "type": "address"
        }
      ],
      "payable": false,
      "stateMutability": "view",
      "type": "function"
    },
    {
      "constant": true,
      "inputs": [
        {
          "name": "",
          "type": "address"
        }
      ],
      "name": "isOwner",
      "outputs": [
        {
          "name": "",
          "type": "bool"
        }
      ],
      "payable": false,
      "stateMutability": "view",
      "type": "function"
    },
    {
      "constant": true,
      "inputs": [
        {
          "name": "",
          "type": "uint256"
        },
        {
          "name": "",
          "type": "address"
        }
      ],
      "name": "confirmations",
      "outputs": [
        {
          "name": "",
          "type": "bool"
        }
      ],
      "payable": false,
      "stateMutability": "view",
      "type": "function"
    },
    {
      "constant": true,
      "inputs": [
        {
          "name": "",
          "type": "uint256"
        }
      ],
      "name": "transactions",
      "outputs": [
        {
          "name": "data",
          "type": "bytes"
        },
        {
          "name": "executed",
          "type": "bool"
        }
      ],
      "payable": false,
      "stateMutability": "view",
      "type": "function"
    },
    {
      "constant": true,
      "inputs": [],
      "name": "transactionCount",
      "outputs": [
        {
          "name": "",
          "type": "uint256"
        }
      ],
      "payable": false,
      "stateMutability": "view",
      "type": "function"
    },
    {
      "constant": true,
      "inputs": [],
      "name": "MAX_OWNER_COUNT",
      "outputs": [
        {
          "name": "",
          "type": "uint256"
        }
      ],
      "payable": false,
      "stateMutability": "view",
      "type": "function"
    },
    {
      "constant": true,
      "inputs": [],
      "name": "required",
      "outputs": [
        {
          "name": "",
          "type": "uint256"
        }
      ],
      "payable": false,
      "stateMutability": "view",
      "type": "function"
    },
    {
      "inputs": [
        {
          "name": "_owners",
          "type": "address[]"
        },
        {
          "name": "_required",
          "type": "uint256"
        }
      ],
      "payable": false,
      "stateMutability": "nonpayable",
      "type": "constructor"
    },
    {
      "payable": true,
      "stateMutability": "payable",
      "type": "fallback"
    },
    {
      "anonymous": false,
      "inputs": [
        {
          "indexed": true,
          "name": "sender",
          "type": "address"
        },
        {
          "indexed": true,
          "name": "transactionId",
          "type": "uint256"
        }
      ],
      "name": "Confirmation",
      "type": "event"
    },
    {
      "anonymous": false,
      "inputs": [
        {
          "indexed": true,
          "name": "sender",
          "type": "address"
        },
        {
          "indexed": true,
          "name": "transactionId",
          "type": "uint256"
        }
      ],
      "name": "Revocation",
      "type": "event"
    },
    {
      "anonymous": false,
      "inputs": [
        {
          "indexed": true,
          "name": "transactionId",
          "type": "uint256"
        }
      ],
      "name": "Submission",
      "type": "event"
    },
    {
      "anonymous": false,
      "inputs": [
        {
          "indexed": true,
          "name": "transactionId",
          "type": "uint256"
        }
      ],
      "name": "Execution",
      "type": "event"
    },
    {
      "anonymous": false,
      "inputs": [
        {
          "indexed": true,
          "name": "transactionId",
          "type": "uint256"
        }
      ],
      "name": "ExecutionFailure",
      "type": "event"
    },
    {
      "anonymous": false,
      "inputs": [
        {
          "indexed": true,
          "name": "owner",
          "type": "address"
        }
      ],
      "name": "OwnerAddition",
      "type": "event"
    },
    {
      "anonymous": false,
      "inputs": [
        {
          "indexed": true,
          "name": "owner",
          "type": "address"
        }
      ],
      "name": "OwnerRemoval",
      "type": "event"
    },
    {
      "anonymous": false,
      "inputs": [
        {
          "indexed": false,
          "name": "required",
          "type": "uint256"
        }
      ],
      "name": "RequirementChange",
      "type": "event"
    },
    {
      "constant": false,
      "inputs": [
        {
          "name": "owner",
          "type": "address"
        }
      ],
      "name": "addOwner",
      "outputs": [],
      "payable": false,
      "stateMutability": "nonpayable",
      "type": "function"
    },
    {
      "constant": false,
      "inputs": [
        {
          "name": "owner",
          "type": "address"
        }
      ],
      "name": "removeOwner",
      "outputs": [],
      "payable": false,
      "stateMutability": "nonpayable",
      "type": "function"
    },
    {
      "constant": false,
      "inputs": [
        {
          "name": "owner",
          "type": "address"
        },
        {
          "name": "newOwner",
          "type": "address"
        }
      ],
      "name": "replaceOwner",
      "outputs": [],
      "payable": false,
      "stateMutability": "nonpayable",
      "type": "function"
    },
    {
      "constant": false,
      "inputs": [
        {
          "name": "_required",
          "type": "uint256"
        }
      ],
      "name": "changeRequirement",
      "outputs": [],
      "payable": false,
      "stateMutability": "nonpayable",
      "type": "function"
    },
    {
      "constant": false,
      "inputs": [
        {
          "name": "data",
          "type": "bytes"
        }
      ],
      "name": "submitTransaction",
      "outputs": [
        {
          "name": "transactionId",
          "type": "uint256"
        }
      ],
      "payable": false,
      "stateMutability": "nonpayable",
      "type": "function"
    },
    {
      "constant": false,
      "inputs": [
        {
          "name": "transactionId",
          "type": "uint256"
        }
      ],
      "name": "confirmTransaction",
      "outputs": [],
      "payable": false,
      "stateMutability": "nonpayable",
      "type": "function"
    },
    {
      "constant": false,
      "inputs": [
        {
          "name": "transactionId",
          "type": "uint256"
        }
      ],
      "name": "revokeConfirmation",
      "outputs": [],
      "payable": false,
      "stateMutability": "nonpayable",
      "type": "function"
    },
    {
      "constant": false,
      "inputs": [
        {
          "name": "transactionId",
          "type": "uint256"
        }
      ],
      "name": "executeTransaction",
      "outputs": [],
      "payable": false,
      "stateMutability": "nonpayable",
      "type": "function"
    },
    {
      "constant": true,
      "inputs": [
        {
          "name": "transactionId",
          "type": "uint256"
        }
      ],
      "name": "isConfirmed",
      "outputs": [
        {
          "name": "",
          "type": "bool"
        }
      ],
      "payable": false,
      "stateMutability": "view",
      "type": "function"
    },
    {
      "constant": true,
      "inputs": [
        {
          "name": "transactionId",
          "type": "uint256"
        }
      ],
      "name": "getConfirmationCount",
      "outputs": [
        {
          "name": "count",
          "type": "uint256"
        }
      ],
      "payable": false,
      "stateMutability": "view",
      "type": "function"
    },
    {
      "constant": true,
      "inputs": [
        {
          "name": "pending",
          "type": "bool"
        },
        {
          "name": "executed",
          "type": "bool"
        }
      ],
      "name": "getTransactionCount",
      "outputs": [
        {
          "name": "count",
          "type": "uint256"
        }
      ],
      "payable": false,
      "stateMutability": "view",
      "type": "function"
    },
    {
      "constant": true,
      "inputs": [],
      "name": "getOwners",
      "outputs": [
        {
          "name": "",
          "type": "address[]"
        }
      ],
      "payable": false,
      "stateMutability": "view",
      "type": "function"
    },
    {
      "constant": true,
      "inputs": [
        {
          "name": "transactionId",
          "type": "uint256"
        }
      ],
      "name": "getConfirmations",
      "outputs": [
        {
          "name": "_confirmations",
          "type": "address[]"
        }
      ],
      "payable": false,
      "stateMutability": "view",
      "type": "function"
    },
    {
      "constant": true,
      "inputs": [
        {
          "name": "from",
          "type": "uint256"
        },
        {
          "name": "to",
          "type": "uint256"
        },
        {
          "name": "pending",
          "type": "bool"
        },
        {
          "name": "executed",
          "type": "bool"
        }
      ],
      "name": "getTransactionIds",
      "outputs": [
        {
          "name": "_transactionIds",
          "type": "uint256[]"
        }
      ],
      "payable": false,
      "stateMutability": "view",
      "type": "function"
    }
  ],
  "bytecode": "0x606060405234156200001057600080fd5b604051620022193803806200221983398101604052808051820191906020018051906020019091905050600082518260328211158015620000515750818111155b80156200005f575060008114155b80156200006d575060008214155b15156200007957600080fd5b600092505b8451831015620001b4576002600086858151811015156200009b57fe5b9060200190602002015173ffffffffffffffffffffffffffffffffffffffff1673ffffffffffffffffffffffffffffffffffffffff16815260200190815260200160002060009054906101000a900460ff161580156200012a5750600085848151811015156200010757fe5b9060200190602002015173ffffffffffffffffffffffffffffffffffffffff1614155b15156200013657600080fd5b60016002600087868151811015156200014b57fe5b9060200190602002015173ffffffffffffffffffffffffffffffffffffffff1673ffffffffffffffffffffffffffffffffffffffff16815260200190815260200160002060006101000a81548160ff02191690831515021790555082806001019350506200007e565b8460039080519060200190620001cc929190620001df565b50836004819055505050505050620002b4565b8280548282559060005260206000209081019282156200025b579160200282015b828111156200025a5782518260006101000a81548173ffffffffffffffffffffffffffffffffffffffff021916908373ffffffffffffffffffffffffffffffffffffffff1602179055509160200191906001019062000200565b5b5090506200026a91906200026e565b5090565b620002b191905b80821115620002ad57600081816101000a81549073ffffffffffffffffffffffffffffffffffffffff02191690555060010162000275565b5090565b90565b611f5580620002c46000396000f30060606040526004361061011d576000357c0100000000000000000000000000000000000000000000000000000000900463ffffffff168063025e7c2714610122578063173825d91461018557806320ea8d86146101be5780632f54bf6e146101e15780633411c81c14610232578063547415251461028c5780637065cb48146102d0578063784547a7146103095780638b51d13f146103445780639ace38c21461037b578063a0e67e2b14610422578063a8abe69a1461048c578063b5dc40c314610523578063b77bf6001461059b578063ba51a6df146105c4578063bc95ab1b146105e7578063c01a8c8414610658578063d74f8edd1461067b578063dc8452cd146106a4578063e20056e6146106cd578063ee22610b14610725575b600080fd5b341561012d57600080fd5b6101436004808035906020019091905050610748565b604051808273ffffffffffffffffffffffffffffffffffffffff1673ffffffffffffffffffffffffffffffffffffffff16815260200191505060405180910390f35b341561019057600080fd5b6101bc600480803573ffffffffffffffffffffffffffffffffffffffff16906020019091905050610787565b005b34156101c957600080fd5b6101df6004808035906020019091905050610a23565b005b34156101ec57600080fd5b610218600480803573ffffffffffffffffffffffffffffffffffffffff16906020019091905050610bcb565b604051808215151515815260200191505060405180910390f35b341561023d57600080fd5b610272600480803590602001909190803573ffffffffffffffffffffffffffffffffffffffff16906020019091905050610beb565b604051808215151515815260200191505060405180910390f35b341561029757600080fd5b6102ba600480803515159060200190919080351515906020019091905050610c1a565b6040518082815260200191505060405180910390f35b34156102db57600080fd5b610307600480803573ffffffffffffffffffffffffffffffffffffffff16906020019091905050610cac565b005b341561031457600080fd5b61032a6004808035906020019091905050610eae565b604051808215151515815260200191505060405180910390f35b341561034f57600080fd5b6103656004808035906020019091905050610f94565b6040518082815260200191505060405180910390f35b341561038657600080fd5b61039c6004808035906020019091905050611060565b604051808060200183151515158152602001828103825284818151815260200191508051906020019080838360005b838110156103e65780820151818401526020810190506103cb565b50505050905090810190601f1680156104135780820380516001836020036101000a031916815260200191505b50935050505060405180910390f35b341561042d57600080fd5b610435611129565b6040518080602001828103825283818151815260200191508051906020019060200280838360005b8381101561047857808201518184015260208101905061045d565b505050509050019250505060405180910390f35b341561049757600080fd5b6104cc6004808035906020019091908035906020019091908035151590602001909190803515159060200190919050506111bd565b6040518080602001828103825283818151815260200191508051906020019060200280838360005b8381101561050f5780820151818401526020810190506104f4565b505050509050019250505060405180910390f35b341561052e57600080fd5b6105446004808035906020019091905050611319565b6040518080602001828103825283818151815260200191508051906020019060200280838360005b8381101561058757808201518184015260208101905061056c565b505050509050019250505060405180910390f35b34156105a657600080fd5b6105ae611543565b6040518082815260200191505060405180910390f35b34156105cf57600080fd5b6105e56004808035906020019091905050611549565b005b34156105f257600080fd5b610642600480803590602001908201803590602001908080601f01602080910402602001604051908101604052809392919081815260200183838082843782019150505050505091905050611603565b6040518082815260200191505060405180910390f35b341561066357600080fd5b610679600480803590602001909190505061161e565b005b341561068657600080fd5b61068e6117d8565b6040518082815260200191505060405180910390f35b34156106af57600080fd5b6106b76117dd565b6040518082815260200191505060405180910390f35b34156106d857600080fd5b610723600480803573ffffffffffffffffffffffffffffffffffffffff1690602001909190803573ffffffffffffffffffffffffffffffffffffffff169060200190919050506117e3565b005b341561073057600080fd5b6107466004808035906020019091905050611afa565b005b60038181548110151561075757fe5b90600052602060002090016000915054906101000a900473ffffffffffffffffffffffffffffffffffffffff1681565b60003073ffffffffffffffffffffffffffffffffffffffff163373ffffffffffffffffffffffffffffffffffffffff161415156107c357600080fd5b81600260008273ffffffffffffffffffffffffffffffffffffffff1673ffffffffffffffffffffffffffffffffffffffff16815260200190815260200160002060009054906101000a900460ff16151561081c57600080fd5b6000600260008573ffffffffffffffffffffffffffffffffffffffff1673ffffffffffffffffffffffffffffffffffffffff16815260200190815260200160002060006101000a81548160ff021916908315150217905550600091505b6001600380549050038210156109a4578273ffffffffffffffffffffffffffffffffffffffff166003838154811015156108af57fe5b906000526020600020900160009054906101000a900473ffffffffffffffffffffffffffffffffffffffff1673ffffffffffffffffffffffffffffffffffffffff16141561099757600360016003805490500381548110151561090e57fe5b906000526020600020900160009054906101000a900473ffffffffffffffffffffffffffffffffffffffff1660038381548110151561094957fe5b906000526020600020900160006101000a81548173ffffffffffffffffffffffffffffffffffffffff021916908373ffffffffffffffffffffffffffffffffffffffff1602179055506109a4565b8180600101925050610879565b60016003818180549050039150816109bc9190611e04565b5060038054905060045411156109db576109da600380549050611549565b5b8273ffffffffffffffffffffffffffffffffffffffff167f8001553a916ef2f495d26a907cc54d96ed840d7bda71e73194bf5a9df7a76b9060405160405180910390a2505050565b33600260008273ffffffffffffffffffffffffffffffffffffffff1673ffffffffffffffffffffffffffffffffffffffff16815260200190815260200160002060009054906101000a900460ff161515610a7c57600080fd5b81336001600083815260200190815260200160002060008273ffffffffffffffffffffffffffffffffffffffff1673ffffffffffffffffffffffffffffffffffffffff16815260200190815260200160002060009054906101000a900460ff161515610ae757600080fd5b8360008082815260200190815260200160002060010160009054906101000a900460ff16151515610b1757600080fd5b60006001600087815260200190815260200160002060003373ffffffffffffffffffffffffffffffffffffffff1673ffffffffffffffffffffffffffffffffffffffff16815260200190815260200160002060006101000a81548160ff021916908315150217905550843373ffffffffffffffffffffffffffffffffffffffff167ff6a317157440607f36269043eb55f1287a5a19ba2216afeab88cd46cbcfb88e960405160405180910390a35050505050565b60026020528060005260406000206000915054906101000a900460ff1681565b60016020528160005260406000206020528060005260406000206000915091509054906101000a900460ff1681565b600080600090505b600554811015610ca557838015610c59575060008082815260200190815260200160002060010160009054906101000a900460ff16155b80610c8c5750828015610c8b575060008082815260200190815260200160002060010160009054906101000a900460ff165b5b15610c98576001820191505b8080600101915050610c22565b5092915050565b3073ffffffffffffffffffffffffffffffffffffffff163373ffffffffffffffffffffffffffffffffffffffff16141515610ce657600080fd5b80600260008273ffffffffffffffffffffffffffffffffffffffff1673ffffffffffffffffffffffffffffffffffffffff16815260200190815260200160002060009054906101000a900460ff16151515610d4057600080fd5b8160008173ffffffffffffffffffffffffffffffffffffffff1614151515610d6757600080fd5b60016003805490500160045460328211158015610d845750818111155b8015610d91575060008114155b8015610d9e575060008214155b1515610da957600080fd5b6001600260008773ffffffffffffffffffffffffffffffffffffffff1673ffffffffffffffffffffffffffffffffffffffff16815260200190815260200160002060006101000a81548160ff02191690831515021790555060038054806001018281610e159190611e30565b9160005260206000209001600087909190916101000a81548173ffffffffffffffffffffffffffffffffffffffff021916908373ffffffffffffffffffffffffffffffffffffffff160217905550508473ffffffffffffffffffffffffffffffffffffffff167ff39e6e1eb0edcf53c221607b54b00cd28f3196fed0a24994dc308b8f611b682d60405160405180910390a25050505050565b6000806000809150600090505b600380549050811015610f8c57600160008581526020019081526020016000206000600383815481101515610eec57fe5b906000526020600020900160009054906101000a900473ffffffffffffffffffffffffffffffffffffffff1673ffffffffffffffffffffffffffffffffffffffff1673ffffffffffffffffffffffffffffffffffffffff16815260200190815260200160002060009054906101000a900460ff1615610f6c576001820191505b600454821415610f7f5760019250610f8d565b8080600101915050610ebb565b5b5050919050565b600080600090505b60038054905081101561105a57600160008481526020019081526020016000206000600383815481101515610fcd57fe5b906000526020600020900160009054906101000a900473ffffffffffffffffffffffffffffffffffffffff1673ffffffffffffffffffffffffffffffffffffffff1673ffffffffffffffffffffffffffffffffffffffff16815260200190815260200160002060009054906101000a900460ff161561104d576001820191505b8080600101915050610f9c565b50919050565b6000602052806000526040600020600091509050806000018054600181600116156101000203166002900480601f01602080910402602001604051908101604052809291908181526020018280546001816001161561010002031660029004801561110c5780601f106110e15761010080835404028352916020019161110c565b820191906000526020600020905b8154815290600101906020018083116110ef57829003601f168201915b5050505050908060010160009054906101000a900460ff16905082565b611131611e5c565b60038054806020026020016040519081016040528092919081815260200182805480156111b357602002820191906000526020600020905b8160009054906101000a900473ffffffffffffffffffffffffffffffffffffffff1673ffffffffffffffffffffffffffffffffffffffff1681526020019060010190808311611169575b5050505050905090565b6111c5611e70565b6111cd611e70565b6000806005546040518059106111e05750595b9080825280602002602001820160405250925060009150600090505b60055481101561129c57858015611233575060008082815260200190815260200160002060010160009054906101000a900460ff16155b806112665750848015611265575060008082815260200190815260200160002060010160009054906101000a900460ff165b5b1561128f5780838381518110151561127a57fe5b90602001906020020181815250506001820191505b80806001019150506111fc565b8787036040518059106112ac5750595b908082528060200260200182016040525093508790505b8681101561130e5782818151811015156112d957fe5b90602001906020020151848983038151811015156112f357fe5b906020019060200201818152505080806001019150506112c3565b505050949350505050565b611321611e5c565b611329611e5c565b60008060038054905060405180591061133f5750595b9080825280602002602001820160405250925060009150600090505b60038054905081101561149e5760016000868152602001908152602001600020600060038381548110151561138c57fe5b906000526020600020900160009054906101000a900473ffffffffffffffffffffffffffffffffffffffff1673ffffffffffffffffffffffffffffffffffffffff1673ffffffffffffffffffffffffffffffffffffffff16815260200190815260200160002060009054906101000a900460ff16156114915760038181548110151561141457fe5b906000526020600020900160009054906101000a900473ffffffffffffffffffffffffffffffffffffffff16838381518110151561144e57fe5b9060200190602002019073ffffffffffffffffffffffffffffffffffffffff16908173ffffffffffffffffffffffffffffffffffffffff16815250506001820191505b808060010191505061135b565b816040518059106114ac5750595b90808252806020026020018201604052509350600090505b8181101561153b5782818151811015156114da57fe5b9060200190602002015184828151811015156114f257fe5b9060200190602002019073ffffffffffffffffffffffffffffffffffffffff16908173ffffffffffffffffffffffffffffffffffffffff168152505080806001019150506114c4565b505050919050565b60055481565b3073ffffffffffffffffffffffffffffffffffffffff163373ffffffffffffffffffffffffffffffffffffffff1614151561158357600080fd5b600380549050816032821115801561159b5750818111155b80156115a8575060008114155b80156115b5575060008214155b15156115c057600080fd5b826004819055507fa3f1ee9126a074d9326c682f561767f710e927faa811f7a99829d49dc421797a836040518082815260200191505060405180910390a1505050565b600061160e82611d50565b90506116198161161e565b919050565b33600260008273ffffffffffffffffffffffffffffffffffffffff1673ffffffffffffffffffffffffffffffffffffffff16815260200190815260200160002060009054906101000a900460ff16151561167757600080fd5b8160008060008381526020019081526020016000206000018054600181600116156101000203166002900490501115156116b057600080fd5b82336001600083815260200190815260200160002060008273ffffffffffffffffffffffffffffffffffffffff1673ffffffffffffffffffffffffffffffffffffffff16815260200190815260200160002060009054906101000a900460ff1615151561171c57600080fd5b600180600087815260200190815260200160002060003373ffffffffffffffffffffffffffffffffffffffff1673ffffffffffffffffffffffffffffffffffffffff16815260200190815260200160002060006101000a81548160ff021916908315150217905550843373ffffffffffffffffffffffffffffffffffffffff167f4a504a94899432a9846e1aa406dceb1bcfd538bb839071d49d1e5e23f5be30ef60405160405180910390a36117d185611afa565b5050505050565b603281565b60045481565b60003073ffffffffffffffffffffffffffffffffffffffff163373ffffffffffffffffffffffffffffffffffffffff1614151561181f57600080fd5b82600260008273ffffffffffffffffffffffffffffffffffffffff1673ffffffffffffffffffffffffffffffffffffffff16815260200190815260200160002060009054906101000a900460ff16151561187857600080fd5b82600260008273ffffffffffffffffffffffffffffffffffffffff1673ffffffffffffffffffffffffffffffffffffffff16815260200190815260200160002060009054906101000a900460ff161515156118d257600080fd5b600092505b6003805490508310156119bd578473ffffffffffffffffffffffffffffffffffffffff1660038481548110151561190a57fe5b906000526020600020900160009054906101000a900473ffffffffffffffffffffffffffffffffffffffff1673ffffffffffffffffffffffffffffffffffffffff1614156119b0578360038481548110151561196257fe5b906000526020600020900160006101000a81548173ffffffffffffffffffffffffffffffffffffffff021916908373ffffffffffffffffffffffffffffffffffffffff1602179055506119bd565b82806001019350506118d7565b6000600260008773ffffffffffffffffffffffffffffffffffffffff1673ffffffffffffffffffffffffffffffffffffffff16815260200190815260200160002060006101000a81548160ff0219169083151502179055506001600260008673ffffffffffffffffffffffffffffffffffffffff1673ffffffffffffffffffffffffffffffffffffffff16815260200190815260200160002060006101000a81548160ff0219169083151502179055508473ffffffffffffffffffffffffffffffffffffffff167f8001553a916ef2f495d26a907cc54d96ed840d7bda71e73194bf5a9df7a76b9060405160405180910390a28373ffffffffffffffffffffffffffffffffffffffff167ff39e6e1eb0edcf53c221607b54b00cd28f3196fed0a24994dc308b8f611b682d60405160405180910390a25050505050565b600033600260008273ffffffffffffffffffffffffffffffffffffffff1673ffffffffffffffffffffffffffffffffffffffff16815260200190815260200160002060009054906101000a900460ff161515611b5557600080fd5b82336001600083815260200190815260200160002060008273ffffffffffffffffffffffffffffffffffffffff1673ffffffffffffffffffffffffffffffffffffffff16815260200190815260200160002060009054906101000a900460ff161515611bc057600080fd5b8460008082815260200190815260200160002060010160009054906101000a900460ff16151515611bf057600080fd5b611bf986610eae565b15611d4857600080878152602001908152602001600020945060018560010160006101000a81548160ff0219169083151502179055503073ffffffffffffffffffffffffffffffffffffffff16856000016040518082805460018160011615610100020316600290048015611caf5780601f10611c8457610100808354040283529160200191611caf565b820191906000526020600020905b815481529060010190602001808311611c9257829003601f168201915b50509150506000604051808303816000865af191505015611cfc57857f33e13ecb54c3076d8e8bb8c2881800a4d972b792045ffae98fdf46df365fed7560405160405180910390a2611d47565b857f526441bb6c1aba3c9a4a6ca1d6545da9c2333c8c48343ef398eb858d72b7923660405160405180910390a260008560010160006101000a81548160ff0219169083151502179055505b5b505050505050565b600060055490506040805190810160405280838152602001600015158152506000808381526020019081526020016000206000820151816000019080519060200190611d9d929190611e84565b5060208201518160010160006101000a81548160ff0219169083151502179055509050506001600560008282540192505081905550807fc0ba8fe4b176c1714197d43b9cc6bcf797a4a7461c5fe8d0ef6e184ae7601e5160405160405180910390a2919050565b815481835581811511611e2b57818360005260206000209182019101611e2a9190611f04565b5b505050565b815481835581811511611e5757818360005260206000209182019101611e569190611f04565b5b505050565b602060405190810160405280600081525090565b602060405190810160405280600081525090565b828054600181600116156101000203166002900490600052602060002090601f016020900481019282601f10611ec557805160ff1916838001178555611ef3565b82800160010185558215611ef3579182015b82811115611ef2578251825591602001919060010190611ed7565b5b509050611f009190611f04565b5090565b611f2691905b80821115611f22576000816000905550600101611f0a565b5090565b905600a165627a7a723058206bd1d37cf31c351e73be62d32ffb52b9d8a277599f37c0efc90968f822ff6a3d0029",
  "source": "pragma solidity ^0.4.21;\r\n\r\n/// @title Multisignature wallet - Allows multiple parties to agree on transactions before execution.\r\n/// @author Based on code by Stefan George - <stefan.george@consensys.net>\r\n\r\ncontract Receiver {\r\n    function tokenFallback(address from, uint value, bytes data) public;\r\n}\r\n\r\n/*\r\n * ERC20 interface\r\n * see https://github.com/ethereum/EIPs/issues/20\r\n */\r\ncontract ERC20 {\r\n  uint public totalSupply;\r\n  function balanceOf(address who) public constant returns (uint);\r\n  function allowance(address owner, address spender) public constant returns (uint);\r\n\r\n  function transfer(address to, uint value) public returns (bool ok);\r\n  function transferFrom(address from, address to, uint value) public returns (bool ok);\r\n  function approve(address spender, uint value) public returns (bool ok);\r\n  event Transfer(address indexed from, address indexed to, uint value);\r\n  event Approval(address indexed owner, address indexed spender, uint value);\r\n}\r\n\r\ncontract MultiSigWallet {\r\n\r\n    /*\r\n     *  Events\r\n     */\r\n\r\n    event Confirmation(address indexed sender, uint indexed transactionId);\r\n    event Revocation(address indexed sender, uint indexed transactionId);\r\n    event Submission(uint indexed transactionId);\r\n    event Execution(uint indexed transactionId);\r\n    event ExecutionFailure(uint indexed transactionId);\r\n    event OwnerAddition(address indexed owner);\r\n    event OwnerRemoval(address indexed owner);\r\n    event RequirementChange(uint required);\r\n\r\n    /*\r\n     *  Constants\r\n     */\r\n    uint constant public MAX_OWNER_COUNT = 50;\r\n\r\n    /*\r\n     *  Storage\r\n     */\r\n\r\n    mapping (uint => Transaction) public transactions;\r\n    mapping (uint => mapping (address => bool)) public confirmations;\r\n    mapping (address => bool) public isOwner;\r\n    address[] public owners;\r\n    uint public required;\r\n    uint public transactionCount;\r\n\r\n    struct Transaction {\r\n        bytes data;\r\n        bool executed;\r\n    }\r\n\r\n    /*\r\n     *  Modifiers\r\n     */\r\n    modifier onlyWallet() {\r\n        require(msg.sender == address(this));\r\n        _;\r\n    }\r\n\r\n    modifier ownerDoesNotExist(address owner) {\r\n        require(!isOwner[owner]);\r\n        _;\r\n    }\r\n\r\n    modifier ownerExists(address owner) {\r\n        require(isOwner[owner]);\r\n        _;\r\n    }\r\n\r\n    modifier transactionExists(uint transactionId) {\r\n        require(transactions[transactionId].data.length > 0);\r\n        _;\r\n    }\r\n\r\n    modifier confirmed(uint transactionId, address owner) {\r\n        require(confirmations[transactionId][owner]);\r\n        _;\r\n    }\r\n\r\n    modifier notConfirmed(uint transactionId, address owner) {\r\n        require(!confirmations[transactionId][owner]);\r\n        _;\r\n    }\r\n\r\n    modifier notExecuted(uint transactionId) {\r\n        require(!transactions[transactionId].executed);\r\n        _;\r\n    }\r\n\r\n    modifier notNull(address _address) {\r\n        require(_address != 0);\r\n        _;\r\n    }\r\n\r\n    modifier validRequirement(uint ownerCount, uint _required) {\r\n        require(ownerCount <= MAX_OWNER_COUNT\r\n            && _required <= ownerCount\r\n            && _required != 0\r\n            && ownerCount != 0);\r\n        _;\r\n    }\r\n\r\n    /// @dev Fallback function: don't accept ETH\r\n    function()\r\n      public\r\n      payable\r\n    {\r\n      revert();\r\n    }\r\n\r\n    /*\r\n     * Public functions\r\n     */\r\n    /// @dev Contract constructor sets initial owners and required number of confirmations\r\n    /// @param _owners List of initial owners.\r\n    /// @param _required Number of required confirmations.\r\n    function MultiSigWallet(address[] _owners, uint _required)\r\n        public\r\n        validRequirement(_owners.length, _required)\r\n    {\r\n        for (uint i=0; i<_owners.length; i++) {\r\n            require(!isOwner[_owners[i]] && _owners[i] != 0);\r\n            isOwner[_owners[i]] = true;\r\n        }\r\n        owners = _owners;\r\n        required = _required;\r\n    }\r\n\r\n    /// @dev Allows to add a new owner. Transaction has to be sent by wallet.\r\n    /// @param owner Address of new owner.\r\n    function addOwner(address owner)\r\n        public\r\n        onlyWallet\r\n        ownerDoesNotExist(owner)\r\n        notNull(owner)\r\n        validRequirement(owners.length + 1, required)\r\n    {\r\n        isOwner[owner] = true;\r\n        owners.push(owner);\r\n        emit OwnerAddition(owner);\r\n    }\r\n\r\n    /// @dev Allows to remove an owner. Transaction has to be sent by wallet.\r\n    /// @param owner Address of owner.\r\n    function removeOwner(address owner)\r\n        public\r\n        onlyWallet\r\n        ownerExists(owner)\r\n    {\r\n        isOwner[owner] = false;\r\n        for (uint i=0; i<owners.length - 1; i++)\r\n            if (owners[i] == owner) {\r\n                owners[i] = owners[owners.length - 1];\r\n                break;\r\n            }\r\n        owners.length -= 1;\r\n        if (required > owners.length)\r\n            changeRequirement(owners.length);\r\n        emit OwnerRemoval(owner);\r\n    }\r\n\r\n    /// @dev Allows to replace an owner with a new owner. Transaction has to be sent by wallet.\r\n    /// @param owner Address of owner to be replaced.\r\n    /// @param newOwner Address of new owner.\r\n    function replaceOwner(address owner, address newOwner)\r\n        public\r\n        onlyWallet\r\n        ownerExists(owner)\r\n        ownerDoesNotExist(newOwner)\r\n    {\r\n        for (uint i=0; i<owners.length; i++)\r\n            if (owners[i] == owner) {\r\n                owners[i] = newOwner;\r\n                break;\r\n            }\r\n        isOwner[owner] = false;\r\n        isOwner[newOwner] = true;\r\n        emit OwnerRemoval(owner);\r\n        emit OwnerAddition(newOwner);\r\n    }\r\n\r\n    /// @dev Allows to change the number of required confirmations. Transaction has to be sent by wallet.\r\n    /// @param _required Number of required confirmations.\r\n    function changeRequirement(uint _required)\r\n        public\r\n        onlyWallet\r\n        validRequirement(owners.length, _required)\r\n    {\r\n        required = _required;\r\n        emit RequirementChange(_required);\r\n    }\r\n\r\n    /// @dev Allows an owner to submit and confirm a transaction.\r\n    /// @param data Transaction data payload.\r\n    /// @return Returns transaction ID.\r\n    function submitTransaction(bytes data)\r\n        public\r\n        returns (uint transactionId)\r\n    {\r\n        transactionId = addTransaction(data);\r\n        confirmTransaction(transactionId);\r\n    }\r\n\r\n    /// @dev Allows an owner to confirm a transaction.\r\n    /// @param transactionId Transaction ID.\r\n    function confirmTransaction(uint transactionId)\r\n        public\r\n        ownerExists(msg.sender)\r\n        transactionExists(transactionId)\r\n        notConfirmed(transactionId, msg.sender)\r\n    {\r\n        confirmations[transactionId][msg.sender] = true;\r\n        emit Confirmation(msg.sender, transactionId);\r\n        executeTransaction(transactionId);\r\n    }\r\n\r\n    /// @dev Allows an owner to revoke a confirmation for a transaction.\r\n    /// @param transactionId Transaction ID.\r\n    function revokeConfirmation(uint transactionId)\r\n        public\r\n        ownerExists(msg.sender)\r\n        confirmed(transactionId, msg.sender)\r\n        notExecuted(transactionId)\r\n    {\r\n        confirmations[transactionId][msg.sender] = false;\r\n        emit Revocation(msg.sender, transactionId);\r\n    }\r\n\r\n    function executeTransaction(uint transactionId)\r\n        public\r\n        ownerExists(msg.sender)\r\n        confirmed(transactionId, msg.sender)\r\n        notExecuted(transactionId)\r\n    {\r\n        if (isConfirmed(transactionId)) {\r\n            Transaction storage txn = transactions[transactionId];\r\n            txn.executed = true;\r\n            if (address(this).call(txn.data))\r\n                emit Execution(transactionId);\r\n            else {\r\n                emit ExecutionFailure(transactionId);\r\n                txn.executed = false;\r\n            }\r\n        }\r\n    }\r\n\r\n    /// @dev Returns the confirmation status of a transaction.\r\n    /// @param transactionId Transaction ID.\r\n    /// @return Confirmation status.\r\n    function isConfirmed(uint transactionId)\r\n        public\r\n        constant\r\n        returns (bool)\r\n    {\r\n        uint count = 0;\r\n        for (uint i=0; i<owners.length; i++) {\r\n            if (confirmations[transactionId][owners[i]])\r\n                count += 1;\r\n            if (count == required)\r\n                return true;\r\n        }\r\n    }\r\n\r\n    /*\r\n     * Internal functions\r\n     */\r\n    /// @dev Adds a new transaction to the transaction mapping, if transaction does not exist yet.\r\n    /// @param data Transaction data payload.\r\n    /// @return Returns transaction ID.\r\n    function addTransaction(bytes data)\r\n        internal\r\n        returns (uint transactionId)\r\n    {\r\n        transactionId = transactionCount;\r\n        transactions[transactionId] = Transaction({\r\n            data: data,\r\n            executed: false\r\n        });\r\n        transactionCount += 1;\r\n        emit Submission(transactionId);\r\n    }\r\n\r\n    /*\r\n     * Web3 call functions\r\n     */\r\n    /// @dev Returns number of confirmations of a transaction.\r\n    /// @param transactionId Transaction ID.\r\n    /// @return Number of confirmations.\r\n    function getConfirmationCount(uint transactionId)\r\n        public\r\n        constant\r\n        returns (uint count)\r\n    {\r\n        for (uint i=0; i<owners.length; i++)\r\n            if (confirmations[transactionId][owners[i]])\r\n                count += 1;\r\n    }\r\n\r\n    /// @dev Returns total number of transactions after filers are applied.\r\n    /// @param pending Include pending transactions.\r\n    /// @param executed Include executed transactions.\r\n    /// @return Total number of transactions after filters are applied.\r\n    function getTransactionCount(bool pending, bool executed)\r\n        public\r\n        constant\r\n        returns (uint count)\r\n    {\r\n        for (uint i=0; i<transactionCount; i++)\r\n            if (   pending && !transactions[i].executed\r\n                || executed && transactions[i].executed)\r\n                count += 1;\r\n    }\r\n\r\n    /// @dev Returns list of owners.\r\n    /// @return List of owner addresses.\r\n    function getOwners()\r\n        public\r\n        constant\r\n        returns (address[])\r\n    {\r\n        return owners;\r\n    }\r\n\r\n    /// @dev Returns array with owner addresses, which confirmed transaction.\r\n    /// @param transactionId Transaction ID.\r\n    /// @return Returns array of owner addresses.\r\n    function getConfirmations(uint transactionId)\r\n        public\r\n        constant\r\n        returns (address[] _confirmations)\r\n    {\r\n        address[] memory confirmationsTemp = new address[](owners.length);\r\n        uint count = 0;\r\n        uint i;\r\n        for (i=0; i<owners.length; i++)\r\n            if (confirmations[transactionId][owners[i]]) {\r\n                confirmationsTemp[count] = owners[i];\r\n                count += 1;\r\n            }\r\n        _confirmations = new address[](count);\r\n        for (i=0; i<count; i++)\r\n            _confirmations[i] = confirmationsTemp[i];\r\n    }\r\n\r\n    /// @dev Returns list of transaction IDs in defined range.\r\n    /// @param from Index start position of transaction array.\r\n    /// @param to Index end position of transaction array.\r\n    /// @param pending Include pending transactions.\r\n    /// @param executed Include executed transactions.\r\n    /// @return Returns array of transaction IDs.\r\n    function getTransactionIds(uint from, uint to, bool pending, bool executed)\r\n        public\r\n        constant\r\n        returns (uint[] _transactionIds)\r\n    {\r\n        uint[] memory transactionIdsTemp = new uint[](transactionCount);\r\n        uint count = 0;\r\n        uint i;\r\n        for (i=0; i<transactionCount; i++)\r\n            if (   pending && !transactions[i].executed\r\n                || executed && transactions[i].executed)\r\n            {\r\n                transactionIdsTemp[count] = i;\r\n                count += 1;\r\n            }\r\n        _transactionIds = new uint[](to - from);\r\n        for (i=from; i<to; i++)\r\n            _transactionIds[i - from] = transactionIdsTemp[i];\r\n    }\r\n}\r\n\r\ncontract MultiSigWalletToken is Receiver, MultiSigWallet \r\n{\r\n  //Events\r\n  event TokensReceived(address indexed from, uint value);\r\n\r\n  //Storage\r\n  uint public wallet_balance;  //balance of the wallet\r\n  address public tokens_address;  //address of the ERC20 tokens contract\r\n\r\n  /// @dev Fallback function which is called by tokens contract after transferring tokens to this wallet.\r\n  /// @param from Source address of the transfer.\r\n  /// @param value Amount of received ERC20 tokens.\r\n  function tokenFallback(address from, uint value, bytes)\r\n    public\r\n  {\r\n    require(msg.sender == tokens_address);\r\n    wallet_balance += value;\r\n    emit TokensReceived(from, value);\r\n  }\r\n\r\n  /// @dev Contract constructor sets initial owners, required number of confirmations and tokens_address.\r\n  /// @param _owners List of initial owners.\r\n  /// @param _required Number of required confirmations.\r\n  function MultiSigWalletToken(address[] _owners, uint _required, address _tokens_address)\r\n    public MultiSigWallet(_owners, _required)\r\n  {\r\n    tokens_address = _tokens_address;\r\n  }\r\n\r\n  /// @dev Transfers ERC20 tokens from wallet. Transaction has to be sent by wallet.\r\n  /// @param to Address to transfer tokens.\r\n  /// @param value Amount of ERC20 tokens to transfer.\r\n  function transfer(address to, uint value) \r\n    public\r\n    onlyWallet\r\n  {\r\n    if (ERC20(tokens_address).transfer(to, value)) \r\n      wallet_balance -= value;\r\n  }\r\n\r\n}\r\n\r\ncontract MultiSigWalletTokenLimit is MultiSigWalletToken\r\n{\r\n  //Events\r\n  event Transfer(address indexed to, uint indexed value);\r\n  event CurrentPeriodChanged(uint indexed current_period, uint indexed current_transferred, uint indexed current_limit);\r\n  event AddPeriod(uint indexed timestamp, uint indexed limit);\r\n  event DeactivatePeriod(uint indexed timestamp);\r\n\r\n  //Modifiers\r\n  modifier inFuture(uint t)\r\n  {\r\n    require (t > now);\r\n    _;\r\n  }\r\n\r\n  modifier ownerOrWallet(address owner)\r\n  {\r\n    require (msg.sender == address(this) || isOwner[owner]);\r\n    _;\r\n  }\r\n\r\n  //Storage\r\n  struct Period\r\n  {\r\n    uint timestamp;\r\n    uint limit;\r\n    bool active;\r\n  }\r\n  mapping (uint => Period) public periods;\r\n  uint public periodCount;\r\n  uint public current_period;\r\n  uint public current_transferred;  //amount of transferred tokens in the current period\r\n\r\n  /// @dev Contract constructor sets initial owners, required number of confirmations, initial periods' parameters and token address.\r\n  /// @param _owners List of initial owners.\r\n  /// @param _required Number of required confirmations.\r\n  /// @param _timestamps Timestamps of initial periods.\r\n  /// @param _limits Limits of initial periods. The length of _limits must be the same as _timestamps.\r\n  /// @param _tokens_address Address of the ERC20 tokens contract.\r\n  function MultiSigWalletTokenLimit(address[] _owners, uint _required, uint[] _timestamps, uint[] _limits, address _tokens_address)\r\n    public MultiSigWalletToken(_owners, _required, _tokens_address)\r\n  {\r\n    periods[0].timestamp = 2**256 - 1;\r\n    periods[0].limit = 2**256 - 1;\r\n    periods[0].active = true;\r\n    for (uint i = 0; i < _timestamps.length; i++)\r\n    {\r\n      periods[i + 1].timestamp = _timestamps[i];\r\n      periods[i + 1].limit = _limits[i];\r\n      periods[i + 1].active = true;\r\n    }\r\n    periodCount = 1 + _timestamps.length;\r\n    current_period = 0;\r\n    if (_timestamps.length > 0)\r\n      current_period = 1;\r\n    current_transferred = 0;\r\n  }\r\n\r\n  /// @dev Updates current perriod: looking for a period with a minimmum date(timestamp) that is greater than now.\r\n  function updateCurrentPeriod()\r\n    public\r\n    ownerOrWallet(msg.sender)\r\n  {\r\n    uint new_period = 0;\r\n    for (uint i = 1; i < periodCount; i++)\r\n      if (periods[i].active && periods[i].timestamp > now && periods[i].timestamp < periods[new_period].timestamp)\r\n        new_period = i;\r\n    if (new_period != current_period)\r\n    {\r\n      if (now > periods[current_period].timestamp)\r\n        current_transferred = 0;\r\n      current_period = new_period;\r\n      emit CurrentPeriodChanged(current_period, current_transferred, periods[current_period].limit);\r\n    }\r\n  }\r\n  \r\n  /// @dev Adds new period. Transaction has to be sent by wallet.\r\n  /// @param timestamp Till the date period acts.\r\n  /// @param limit Max amount of tokens which can be transferred.\r\n  function addPeriod(uint timestamp, uint limit)\r\n    public\r\n    onlyWallet\r\n    inFuture(timestamp)\r\n  {\r\n    bool is_set = false;\r\n    for (uint i = 1; i < periodCount; i++)\r\n      if (periods[i].timestamp == timestamp)\r\n      {\r\n        periods[i].limit = limit;\r\n        periods[i].active = true;\r\n        is_set = true;\r\n        break;\r\n      }\r\n    if (!is_set)\r\n    {\r\n      periods[periodCount].timestamp = timestamp;\r\n      periods[periodCount].limit = limit;\r\n      periods[periodCount].active = true;\r\n      ++periodCount;\r\n    }\r\n    emit AddPeriod(timestamp, limit);\r\n    updateCurrentPeriod();\r\n  }\r\n\r\n  /// @dev Deactivates existing period.\r\n  /// @param timestamp Till the date period acts.\r\n  function deactivatePeriod(uint timestamp)\r\n    public\r\n    onlyWallet\r\n    inFuture(timestamp)\r\n  {\r\n    for (uint i = 1; i < periodCount; i++)\r\n      if (periods[i].timestamp == timestamp)\r\n      {\r\n        periods[i].active = false;\r\n        emit DeactivatePeriod(timestamp);\r\n        updateCurrentPeriod();\r\n        return;\r\n      }\r\n  }\r\n\r\n  /// @dev Transfers ERC20 tokens from th wallet to a given address\r\n  /// @param to Address to transfer.\r\n  /// @param value Amount of tokens to transfer.\r\n  function transfer(address to, uint value) \r\n    public\r\n    onlyWallet\r\n  {\r\n    updateCurrentPeriod();\r\n    require(value <= wallet_balance && current_transferred + value <= periods[current_period].limit);\r\n\r\n    if (ERC20(tokens_address).transfer(to, value)) \r\n    {\r\n      wallet_balance -= value;\r\n      current_transferred += value;\r\n      emit Transfer(to, value);\r\n    }\r\n  }\r\n\r\n}\r\n",
  "sourcePath": "C:\\Projects\\eth_multisig\\contracts\\MultiSigWalletTokenLimit.sol",
  "compiler": {
    "name": "solc",
    "version": "0.4.21+commit.dfe3193c.Emscripten.clang"
  },
  "schemaVersion": "2.0.0",
  "updatedAt": "2018-04-18T15:57:01.889Z"
}