{
  "contractName": "MultiSigWalletTokenLimit",
  "abi": [
    {
      "constant": true,
      "inputs": [
        {
          "name": "",
          "type": "uint256"
        }
      ],
      "name": "owners",
      "outputs": [
        {
          "name": "",
          "type": "address"
        }
      ],
      "payable": false,
      "stateMutability": "view",
      "type": "function"
    },
    {
      "constant": true,
      "inputs": [
        {
          "name": "",
          "type": "address"
        }
      ],
      "name": "is_owner",
      "outputs": [
        {
          "name": "",
          "type": "bool"
        }
      ],
      "payable": false,
      "stateMutability": "view",
      "type": "function"
    },
    {
      "constant": true,
      "inputs": [],
      "name": "period_count",
      "outputs": [
        {
          "name": "",
          "type": "uint256"
        }
      ],
      "payable": false,
      "stateMutability": "view",
      "type": "function"
    },
    {
      "constant": true,
      "inputs": [],
      "name": "erc20_contract",
      "outputs": [
        {
          "name": "",
          "type": "address"
        }
      ],
      "payable": false,
      "stateMutability": "view",
      "type": "function"
    },
    {
      "constant": true,
      "inputs": [
        {
          "name": "",
          "type": "uint256"
        },
        {
          "name": "",
          "type": "address"
        }
      ],
      "name": "confirmations",
      "outputs": [
        {
          "name": "",
          "type": "bool"
        }
      ],
      "payable": false,
      "stateMutability": "view",
      "type": "function"
    },
    {
      "constant": true,
      "inputs": [],
      "name": "current_period",
      "outputs": [
        {
          "name": "",
          "type": "uint256"
        }
      ],
      "payable": false,
      "stateMutability": "view",
      "type": "function"
    },
    {
      "constant": true,
      "inputs": [
        {
          "name": "",
          "type": "uint256"
        }
      ],
      "name": "transactions",
      "outputs": [
        {
          "name": "to",
          "type": "address"
        },
        {
          "name": "value",
          "type": "uint256"
        },
        {
          "name": "executed",
          "type": "bool"
        }
      ],
      "payable": false,
      "stateMutability": "view",
      "type": "function"
    },
    {
      "constant": true,
      "inputs": [],
      "name": "required",
      "outputs": [
        {
          "name": "",
          "type": "uint256"
        }
      ],
      "payable": false,
      "stateMutability": "view",
      "type": "function"
    },
    {
      "constant": true,
      "inputs": [],
      "name": "current_transferred",
      "outputs": [
        {
          "name": "",
          "type": "uint256"
        }
      ],
      "payable": false,
      "stateMutability": "view",
      "type": "function"
    },
    {
      "constant": true,
      "inputs": [
        {
          "name": "",
          "type": "uint256"
        }
      ],
      "name": "periods",
      "outputs": [
        {
          "name": "timestamp",
          "type": "uint256"
        },
        {
          "name": "current_limit",
          "type": "uint256"
        },
        {
          "name": "limit",
          "type": "uint256"
        }
      ],
      "payable": false,
      "stateMutability": "view",
      "type": "function"
    },
    {
      "constant": true,
      "inputs": [],
      "name": "transaction_count",
      "outputs": [
        {
          "name": "",
          "type": "uint256"
        }
      ],
      "payable": false,
      "stateMutability": "view",
      "type": "function"
    },
    {
      "inputs": [
        {
          "name": "_owners",
          "type": "address[]"
        },
        {
          "name": "_required",
          "type": "uint256"
        },
        {
          "name": "_timestamps",
          "type": "uint256[]"
        },
        {
          "name": "_limits",
          "type": "uint256[]"
        },
        {
          "name": "_erc20_contract",
          "type": "address"
        }
      ],
      "payable": false,
      "stateMutability": "nonpayable",
      "type": "constructor"
    },
    {
      "payable": true,
      "stateMutability": "payable",
      "type": "fallback"
    },
    {
      "anonymous": false,
      "inputs": [
        {
          "indexed": true,
          "name": "sender",
          "type": "address"
        },
        {
          "indexed": true,
          "name": "transaction_id",
          "type": "uint256"
        }
      ],
      "name": "Confirmation",
      "type": "event"
    },
    {
      "anonymous": false,
      "inputs": [
        {
          "indexed": true,
          "name": "sender",
          "type": "address"
        },
        {
          "indexed": true,
          "name": "transaction_id",
          "type": "uint256"
        }
      ],
      "name": "Revocation",
      "type": "event"
    },
    {
      "anonymous": false,
      "inputs": [
        {
          "indexed": true,
          "name": "transaction_id",
          "type": "uint256"
        }
      ],
      "name": "Submission",
      "type": "event"
    },
    {
      "anonymous": false,
      "inputs": [
        {
          "indexed": true,
          "name": "transaction_id",
          "type": "uint256"
        }
      ],
      "name": "Execution",
      "type": "event"
    },
    {
      "anonymous": false,
      "inputs": [
        {
          "indexed": true,
          "name": "transaction_id",
          "type": "uint256"
        }
      ],
      "name": "ExecutionFailure",
      "type": "event"
    },
    {
      "anonymous": false,
      "inputs": [
        {
          "indexed": true,
          "name": "from",
          "type": "address"
        },
        {
          "indexed": false,
          "name": "value",
          "type": "uint256"
        }
      ],
      "name": "TokensReceived",
      "type": "event"
    },
    {
      "anonymous": false,
      "inputs": [
        {
          "indexed": true,
          "name": "to",
          "type": "address"
        },
        {
          "indexed": true,
          "name": "value",
          "type": "uint256"
        }
      ],
      "name": "Transfer",
      "type": "event"
    },
    {
      "anonymous": false,
      "inputs": [
        {
          "indexed": true,
          "name": "current_period",
          "type": "uint256"
        },
        {
          "indexed": true,
          "name": "current_transferred",
          "type": "uint256"
        },
        {
          "indexed": true,
          "name": "current_limit",
          "type": "uint256"
        }
      ],
      "name": "CurrentPeriodChanged",
      "type": "event"
    },
    {
      "constant": false,
      "inputs": [
        {
          "name": "to",
          "type": "address"
        },
        {
          "name": "value",
          "type": "uint256"
        }
      ],
      "name": "submitTransaction",
      "outputs": [
        {
          "name": "transaction_id",
          "type": "uint256"
        }
      ],
      "payable": false,
      "stateMutability": "nonpayable",
      "type": "function"
    },
    {
      "constant": false,
      "inputs": [
        {
          "name": "transaction_id",
          "type": "uint256"
        }
      ],
      "name": "confirmTransaction",
      "outputs": [],
      "payable": false,
      "stateMutability": "nonpayable",
      "type": "function"
    },
    {
      "constant": false,
      "inputs": [
        {
          "name": "transaction_id",
          "type": "uint256"
        }
      ],
      "name": "revokeConfirmation",
      "outputs": [],
      "payable": false,
      "stateMutability": "nonpayable",
      "type": "function"
    },
    {
      "constant": false,
      "inputs": [
        {
          "name": "transaction_id",
          "type": "uint256"
        }
      ],
      "name": "executeTransaction",
      "outputs": [],
      "payable": false,
      "stateMutability": "nonpayable",
      "type": "function"
    },
    {
      "constant": true,
      "inputs": [
        {
          "name": "transaction_id",
          "type": "uint256"
        }
      ],
      "name": "isConfirmed",
      "outputs": [
        {
          "name": "",
          "type": "bool"
        }
      ],
      "payable": false,
      "stateMutability": "view",
      "type": "function"
    },
    {
      "constant": true,
      "inputs": [
        {
          "name": "transaction_id",
          "type": "uint256"
        }
      ],
      "name": "getConfirmationCount",
      "outputs": [
        {
          "name": "count",
          "type": "uint256"
        }
      ],
      "payable": false,
      "stateMutability": "view",
      "type": "function"
    },
    {
      "constant": true,
      "inputs": [
        {
          "name": "pending",
          "type": "bool"
        },
        {
          "name": "executed",
          "type": "bool"
        }
      ],
      "name": "getTransactionCount",
      "outputs": [
        {
          "name": "count",
          "type": "uint256"
        }
      ],
      "payable": false,
      "stateMutability": "view",
      "type": "function"
    },
    {
      "constant": true,
      "inputs": [],
      "name": "getOwners",
      "outputs": [
        {
          "name": "",
          "type": "address[]"
        }
      ],
      "payable": false,
      "stateMutability": "view",
      "type": "function"
    },
    {
      "constant": true,
      "inputs": [
        {
          "name": "transaction_id",
          "type": "uint256"
        }
      ],
      "name": "getConfirmations",
      "outputs": [
        {
          "name": "_confirmations",
          "type": "address[]"
        }
      ],
      "payable": false,
      "stateMutability": "view",
      "type": "function"
    },
    {
      "constant": true,
      "inputs": [
        {
          "name": "from",
          "type": "uint256"
        },
        {
          "name": "to",
          "type": "uint256"
        },
        {
          "name": "pending",
          "type": "bool"
        },
        {
          "name": "executed",
          "type": "bool"
        }
      ],
      "name": "getTransactionIds",
      "outputs": [
        {
          "name": "_transaction_ids",
          "type": "uint256[]"
        }
      ],
      "payable": false,
      "stateMutability": "view",
      "type": "function"
    },
    {
      "constant": false,
      "inputs": [
        {
          "name": "from",
          "type": "address"
        },
        {
          "name": "value",
          "type": "uint256"
        },
        {
          "name": "",
          "type": "bytes"
        }
      ],
      "name": "tokenFallback",
      "outputs": [],
      "payable": false,
      "stateMutability": "nonpayable",
      "type": "function"
    },
    {
      "constant": true,
      "inputs": [],
      "name": "getWalletBalance",
      "outputs": [
        {
          "name": "",
          "type": "uint256"
        }
      ],
      "payable": false,
      "stateMutability": "view",
      "type": "function"
    },
    {
      "constant": false,
      "inputs": [],
      "name": "updateCurrentPeriod",
      "outputs": [],
      "payable": false,
      "stateMutability": "nonpayable",
      "type": "function"
    }
  ],
  "bytecode": "0x606060405234156200001057600080fd5b60405162001ff738038062001ff783398101604052808051820191906020018051906020019091908051820191906020018051820191906020018051906020019091905050600080600091505b865182101562000193576002600088848151811015156200007a57fe5b9060200190602002015173ffffffffffffffffffffffffffffffffffffffff1673ffffffffffffffffffffffffffffffffffffffff16815260200190815260200160002060009054906101000a900460ff1615801562000109575060008783815181101515620000e657fe5b9060200190602002015173ffffffffffffffffffffffffffffffffffffffff1614155b15156200011557600080fd5b60016002600089858151811015156200012a57fe5b9060200190602002015173ffffffffffffffffffffffffffffffffffffffff1673ffffffffffffffffffffffffffffffffffffffff16815260200190815260200160002060006101000a81548160ff02191690831515021790555081806001019250506200005d565b8660039080519060200190620001ab929190620003ad565b50856004819055507fffffffffffffffffffffffffffffffffffffffffffffffffffffffffffffffff60076000808152602001908152602001600020600001819055507fffffffffffffffffffffffffffffffffffffffffffffffffffffffffffffffff600760008081526020019081526020016000206002018190555060009050600091505b8451821015620003115784828151811015156200024b57fe5b90602001906020020151600760006001850181526020019081526020016000206000018190555083828151811015156200028157fe5b906020019060200201516007600060018501815260200190815260200160002060010181905550620002e38483815181101515620002bb57fe5b90602001906020020151826200038e6401000000000262001af3179091906401000000009004565b9050806007600060018501815260200190815260200160002060020181905550818060010192505062000232565b84516001016008819055506000600981905550600085511115620003385760016009819055505b6000600a8190555082600660006101000a81548173ffffffffffffffffffffffffffffffffffffffff021916908373ffffffffffffffffffffffffffffffffffffffff1602179055505050505050505062000482565b6000808284019050838110151515620003a357fe5b8091505092915050565b82805482825590600052602060002090810192821562000429579160200282015b82811115620004285782518260006101000a81548173ffffffffffffffffffffffffffffffffffffffff021916908373ffffffffffffffffffffffffffffffffffffffff16021790555091602001919060010190620003ce565b5b5090506200043891906200043c565b5090565b6200047f91905b808211156200047b57600081816101000a81549073ffffffffffffffffffffffffffffffffffffffff02191690555060010162000443565b5090565b90565b611b6580620004926000396000f30060606040526004361061013e576000357c0100000000000000000000000000000000000000000000000000000000900463ffffffff168063025e7c27146101435780630776076f146101a6578063152fb5fd146101f75780631d43b6531461022057806320ea8d8614610276578063286ec4d114610299578063329a27e7146102ee5780633411c81c14610317578063431dc4b614610371578063547415251461039a578063784547a7146103de5780638b51d13f146104195780639ace38c214610450578063a0e67e2b146104c5578063a8abe69a1461052f578063acfabbe4146105c6578063b5dc40c3146105db578063c01a8c8414610653578063c0ee0b8a14610676578063dc8452cd146106fb578063de283b2114610724578063ea4a11041461074d578063ee22610b14610792578063f7ff50e2146107b5575b600080fd5b341561014e57600080fd5b61016460048080359060200190919050506107de565b604051808273ffffffffffffffffffffffffffffffffffffffff1673ffffffffffffffffffffffffffffffffffffffff16815260200191505060405180910390f35b34156101b157600080fd5b6101dd600480803573ffffffffffffffffffffffffffffffffffffffff1690602001909190505061081d565b604051808215151515815260200191505060405180910390f35b341561020257600080fd5b61020a61083d565b6040518082815260200191505060405180910390f35b341561022b57600080fd5b610260600480803573ffffffffffffffffffffffffffffffffffffffff16906020019091908035906020019091905050610843565b6040518082815260200191505060405180910390f35b341561028157600080fd5b6102976004808035906020019091905050610888565b005b34156102a457600080fd5b6102ac610a30565b604051808273ffffffffffffffffffffffffffffffffffffffff1673ffffffffffffffffffffffffffffffffffffffff16815260200191505060405180910390f35b34156102f957600080fd5b610301610a56565b6040518082815260200191505060405180910390f35b341561032257600080fd5b610357600480803590602001909190803573ffffffffffffffffffffffffffffffffffffffff16906020019091905050610b30565b604051808215151515815260200191505060405180910390f35b341561037c57600080fd5b610384610b5f565b6040518082815260200191505060405180910390f35b34156103a557600080fd5b6103c8600480803515159060200190919080351515906020019091905050610b65565b6040518082815260200191505060405180910390f35b34156103e957600080fd5b6103ff6004808035906020019091905050610bf7565b604051808215151515815260200191505060405180910390f35b341561042457600080fd5b61043a6004808035906020019091905050610cde565b6040518082815260200191505060405180910390f35b341561045b57600080fd5b6104716004808035906020019091905050610daa565b604051808473ffffffffffffffffffffffffffffffffffffffff1673ffffffffffffffffffffffffffffffffffffffff16815260200183815260200182151515158152602001935050505060405180910390f35b34156104d057600080fd5b6104d8610e01565b6040518080602001828103825283818151815260200191508051906020019060200280838360005b8381101561051b578082015181840152602081019050610500565b505050509050019250505060405180910390f35b341561053a57600080fd5b61056f600480803590602001909190803590602001909190803515159060200190919080351515906020019091905050610e95565b6040518080602001828103825283818151815260200191508051906020019060200280838360005b838110156105b2578082015181840152602081019050610597565b505050509050019250505060405180910390f35b34156105d157600080fd5b6105d9610ff1565b005b34156105e657600080fd5b6105fc600480803590602001909190505061115f565b6040518080602001828103825283818151815260200191508051906020019060200280838360005b8381101561063f578082015181840152602081019050610624565b505050509050019250505060405180910390f35b341561065e57600080fd5b6106746004808035906020019091905050611389565b005b341561068157600080fd5b6106f9600480803573ffffffffffffffffffffffffffffffffffffffff1690602001909190803590602001909190803590602001908201803590602001908080601f01602080910402602001604051908101604052809392919081815260200183838082843782019150505050505091905050611566565b005b341561070657600080fd5b61070e611615565b6040518082815260200191505060405180910390f35b341561072f57600080fd5b61073761161b565b6040518082815260200191505060405180910390f35b341561075857600080fd5b61076e6004808035906020019091905050611621565b60405180848152602001838152602001828152602001935050505060405180910390f35b341561079d57600080fd5b6107b3600480803590602001909190505061164b565b005b34156107c057600080fd5b6107c861183d565b6040518082815260200191505060405180910390f35b6003818154811015156107ed57fe5b90600052602060002090016000915054906101000a900473ffffffffffffffffffffffffffffffffffffffff1681565b60026020528060005260406000206000915054906101000a900460ff1681565b60085481565b60008260008173ffffffffffffffffffffffffffffffffffffffff161415151561086c57600080fd5b6108768484611843565b915061088182611389565b5092915050565b33600260008273ffffffffffffffffffffffffffffffffffffffff1673ffffffffffffffffffffffffffffffffffffffff16815260200190815260200160002060009054906101000a900460ff1615156108e157600080fd5b81336001600083815260200190815260200160002060008273ffffffffffffffffffffffffffffffffffffffff1673ffffffffffffffffffffffffffffffffffffffff16815260200190815260200160002060009054906101000a900460ff16151561094c57600080fd5b8360008082815260200190815260200160002060020160009054906101000a900460ff1615151561097c57600080fd5b60006001600087815260200190815260200160002060003373ffffffffffffffffffffffffffffffffffffffff1673ffffffffffffffffffffffffffffffffffffffff16815260200190815260200160002060006101000a81548160ff021916908315150217905550843373ffffffffffffffffffffffffffffffffffffffff167ff6a317157440607f36269043eb55f1287a5a19ba2216afeab88cd46cbcfb88e960405160405180910390a35050505050565b600660009054906101000a900473ffffffffffffffffffffffffffffffffffffffff1681565b6000600660009054906101000a900473ffffffffffffffffffffffffffffffffffffffff1673ffffffffffffffffffffffffffffffffffffffff166370a08231306040518263ffffffff167c0100000000000000000000000000000000000000000000000000000000028152600401808273ffffffffffffffffffffffffffffffffffffffff1673ffffffffffffffffffffffffffffffffffffffff168152602001915050602060405180830381600087803b1515610b1457600080fd5b5af11515610b2157600080fd5b50505060405180519050905090565b60016020528160005260406000206020528060005260406000206000915091509054906101000a900460ff1681565b60095481565b600080600090505b600554811015610bf057838015610ba4575060008082815260200190815260200160002060020160009054906101000a900460ff16155b80610bd75750828015610bd6575060008082815260200190815260200160002060020160009054906101000a900460ff165b5b15610be3578160010191505b8080600101915050610b6d565b5092915050565b6000806000809150600090505b600380549050811015610cd657600160008581526020019081526020016000206000600383815481101515610c3557fe5b906000526020600020900160009054906101000a900473ffffffffffffffffffffffffffffffffffffffff1673ffffffffffffffffffffffffffffffffffffffff1673ffffffffffffffffffffffffffffffffffffffff16815260200190815260200160002060009054906101000a900460ff1615610cb5578160010191505b60045482101515610cc95760019250610cd7565b8080600101915050610c04565b5b5050919050565b600080600090505b600380549050811015610da457600160008481526020019081526020016000206000600383815481101515610d1757fe5b906000526020600020900160009054906101000a900473ffffffffffffffffffffffffffffffffffffffff1673ffffffffffffffffffffffffffffffffffffffff1673ffffffffffffffffffffffffffffffffffffffff16815260200190815260200160002060009054906101000a900460ff1615610d97578160010191505b8080600101915050610ce6565b50919050565b60006020528060005260406000206000915090508060000160009054906101000a900473ffffffffffffffffffffffffffffffffffffffff16908060010154908060020160009054906101000a900460ff16905083565b610e09611b11565b6003805480602002602001604051908101604052809291908181526020018280548015610e8b57602002820191906000526020600020905b8160009054906101000a900473ffffffffffffffffffffffffffffffffffffffff1673ffffffffffffffffffffffffffffffffffffffff1681526020019060010190808311610e41575b5050505050905090565b610e9d611b25565b610ea5611b25565b600080600554604051805910610eb85750595b9080825280602002602001820160405250925060009150600090505b600554811015610f7457858015610f0b575060008082815260200190815260200160002060020160009054906101000a900460ff16155b80610f3e5750848015610f3d575060008082815260200190815260200160002060020160009054906101000a900460ff165b5b15610f6757808383815181101515610f5257fe5b90602001906020020181815250508160010191505b8080600101915050610ed4565b878703604051805910610f845750595b908082528060200260200182016040525093508790505b86811015610fe6578281815181101515610fb157fe5b9060200190602002015184898303815181101515610fcb57fe5b90602001906020020181815250508080600101915050610f9b565b505050949350505050565b600080333073ffffffffffffffffffffffffffffffffffffffff163373ffffffffffffffffffffffffffffffffffffffff1614806110785750600260008273ffffffffffffffffffffffffffffffffffffffff1673ffffffffffffffffffffffffffffffffffffffff16815260200190815260200160002060009054906101000a900460ff165b151561108357600080fd5b60009250600191505b6008548210156110fc574260076000848152602001908152602001600020600001541180156110e6575060076000848152602001908152602001600020600001546007600084815260200190815260200160002060000154105b156110ef578192505b818060010192505061108c565b6009548314151561115a578260098190555060076000600954815260200190815260200160002060020154600a546009547f56335bf4c021a00617d3f7b5ac9bf25c27b8893d0eeda4be5fdb3c51097bfdeb60405160405180910390a45b505050565b611167611b11565b61116f611b11565b6000806003805490506040518059106111855750595b9080825280602002602001820160405250925060009150600090505b6003805490508110156112e4576001600086815260200190815260200160002060006003838154811015156111d257fe5b906000526020600020900160009054906101000a900473ffffffffffffffffffffffffffffffffffffffff1673ffffffffffffffffffffffffffffffffffffffff1673ffffffffffffffffffffffffffffffffffffffff16815260200190815260200160002060009054906101000a900460ff16156112d75760038181548110151561125a57fe5b906000526020600020900160009054906101000a900473ffffffffffffffffffffffffffffffffffffffff16838381518110151561129457fe5b9060200190602002019073ffffffffffffffffffffffffffffffffffffffff16908173ffffffffffffffffffffffffffffffffffffffff16815250508160010191505b80806001019150506111a1565b816040518059106112f25750595b90808252806020026020018201604052509350600090505b8181101561138157828181518110151561132057fe5b90602001906020020151848281518110151561133857fe5b9060200190602002019073ffffffffffffffffffffffffffffffffffffffff16908173ffffffffffffffffffffffffffffffffffffffff1681525050808060010191505061130a565b505050919050565b33600260008273ffffffffffffffffffffffffffffffffffffffff1673ffffffffffffffffffffffffffffffffffffffff16815260200190815260200160002060009054906101000a900460ff1615156113e257600080fd5b81600080600083815260200190815260200160002060000160009054906101000a900473ffffffffffffffffffffffffffffffffffffffff1673ffffffffffffffffffffffffffffffffffffffff161415151561143e57600080fd5b82336001600083815260200190815260200160002060008273ffffffffffffffffffffffffffffffffffffffff1673ffffffffffffffffffffffffffffffffffffffff16815260200190815260200160002060009054906101000a900460ff161515156114aa57600080fd5b600180600087815260200190815260200160002060003373ffffffffffffffffffffffffffffffffffffffff1673ffffffffffffffffffffffffffffffffffffffff16815260200190815260200160002060006101000a81548160ff021916908315150217905550843373ffffffffffffffffffffffffffffffffffffffff167f4a504a94899432a9846e1aa406dceb1bcfd538bb839071d49d1e5e23f5be30ef60405160405180910390a361155f8561164b565b5050505050565b600660009054906101000a900473ffffffffffffffffffffffffffffffffffffffff1673ffffffffffffffffffffffffffffffffffffffff163373ffffffffffffffffffffffffffffffffffffffff161415156115c257600080fd5b8273ffffffffffffffffffffffffffffffffffffffff167f5a0ebf9442637ca6e817894481a6de0c29715a73efc9e02bb7ef4ed52843362d836040518082815260200191505060405180910390a2505050565b60045481565b600a5481565b60076020528060005260406000206000915090508060000154908060010154908060020154905083565b600033600260008273ffffffffffffffffffffffffffffffffffffffff1673ffffffffffffffffffffffffffffffffffffffff16815260200190815260200160002060009054906101000a900460ff1615156116a657600080fd5b82336001600083815260200190815260200160002060008273ffffffffffffffffffffffffffffffffffffffff1673ffffffffffffffffffffffffffffffffffffffff16815260200190815260200160002060009054906101000a900460ff16151561171157600080fd5b8460008082815260200190815260200160002060020160009054906101000a900460ff1615151561174157600080fd5b61174a86610bf7565b1561183557600080878152602001908152602001600020945060018560020160006101000a81548160ff0219169083151502179055506117b28560000160009054906101000a900473ffffffffffffffffffffffffffffffffffffffff168660010154611948565b156117e957857f33e13ecb54c3076d8e8bb8c2881800a4d972b792045ffae98fdf46df365fed7560405160405180910390a2611834565b857f526441bb6c1aba3c9a4a6ca1d6545da9c2333c8c48343ef398eb858d72b7923660405160405180910390a260008560020160006101000a81548160ff0219169083151502179055505b5b505050505050565b60055481565b600060055490506060604051908101604052808473ffffffffffffffffffffffffffffffffffffffff1681526020018381526020016000151581525060008083815260200190815260200160002060008201518160000160006101000a81548173ffffffffffffffffffffffffffffffffffffffff021916908373ffffffffffffffffffffffffffffffffffffffff1602179055506020820151816001015560408201518160020160006101000a81548160ff02191690831515021790555090505060056000815460010191905081905550807fc0ba8fe4b176c1714197d43b9cc6bcf797a4a7461c5fe8d0ef6e184ae7601e5160405160405180910390a292915050565b6000611952610ff1565b61195a610a56565b821115801561199557506007600060095481526020019081526020016000206002015461199283600a54611af390919063ffffffff16565b11155b15156119a057600080fd5b600660009054906101000a900473ffffffffffffffffffffffffffffffffffffffff1673ffffffffffffffffffffffffffffffffffffffff1663a9059cbb84846040518363ffffffff167c0100000000000000000000000000000000000000000000000000000000028152600401808373ffffffffffffffffffffffffffffffffffffffff1673ffffffffffffffffffffffffffffffffffffffff16815260200182815260200192505050602060405180830381600087803b1515611a6457600080fd5b5af11515611a7157600080fd5b5050506040518051905015611ae857611a9582600a54611af390919063ffffffff16565b600a81905550818373ffffffffffffffffffffffffffffffffffffffff167f69ca02dd4edd7bf0a4abb9ed3b7af3f14778db5d61921c7dc7cd545266326de260405160405180910390a360019050611aed565b600090505b92915050565b6000808284019050838110151515611b0757fe5b8091505092915050565b602060405190810160405280600081525090565b6020604051908101604052806000815250905600a165627a7a72305820bcc8e9b881decfa73d1b07b318f38cef2dd165c62c2262edc94a655886545d870029",
  "source": "pragma solidity ^0.4.21;\r\n\r\n/// @title Multisignature wallet - Allows multiple parties to agree on send ERC20 token transactions before execution.\r\n/// @author Based on code by Stefan George - <stefan.george@consensys.net>\r\n\r\n/*\r\n * ERC20 interface\r\n * see https://github.com/ethereum/EIPs/issues/20\r\n */\r\ncontract ERC20\r\n{\r\n  function balanceOf(address who) public view returns (uint);\r\n  function transfer(address to, uint value) public returns (bool ok);\r\n}\r\n\r\n/**\r\n * @title SafeMath\r\n * @dev Math operations with safety checks that throw on error\r\n */\r\nlibrary SafeMath \r\n{\r\n  /**\r\n  * @dev Subtracts two numbers, throws on overflow (i.e. if subtrahend is greater than minuend).\r\n  */\r\n  function sub(uint a, uint b) \r\n    internal \r\n    pure \r\n    returns (uint) \r\n  {\r\n    assert(b <= a);\r\n    return a - b;\r\n  }\r\n\r\n  /**\r\n  * @dev Adds two numbers, throws on overflow.\r\n  */\r\n  function add(uint a, uint b) \r\n    internal \r\n    pure \r\n    returns (uint) \r\n  {\r\n    uint c = a + b;\r\n    assert(c >= a);\r\n    return c;\r\n  }\r\n}\r\n\r\ncontract MultiSigWalletTokenLimit\r\n{\r\n  using SafeMath for uint;\r\n\r\n  /*\r\n   *  Events\r\n   */\r\n  event Confirmation(address indexed sender, uint indexed transaction_id);\r\n  event Revocation(address indexed sender, uint indexed transaction_id);\r\n  event Submission(uint indexed transaction_id);\r\n  event Execution(uint indexed transaction_id);\r\n  event ExecutionFailure(uint indexed transaction_id);\r\n  event TokensReceived(address indexed from, uint value);\r\n  event Transfer(address indexed to, uint indexed value);\r\n  event CurrentPeriodChanged(uint indexed current_period, uint indexed current_transferred, uint indexed current_limit);\r\n\r\n  /*\r\n   * Structures\r\n   */\r\n  struct Transaction\r\n  {\r\n    address to;\r\n    uint value;\r\n    bool executed;\r\n  }\r\n\r\n  struct Period\r\n  {\r\n    uint timestamp;\r\n    uint current_limit;\r\n    uint limit;\r\n  }\r\n\r\n  /*\r\n  *  Storage\r\n  */\r\n  mapping (uint => Transaction) public transactions;\r\n  mapping (uint => mapping (address => bool)) public confirmations;\r\n  mapping (address => bool) public is_owner;\r\n  address[] public owners;\r\n  uint public required;\r\n  uint public transaction_count;\r\n  ERC20 public erc20_contract;  //address of the ERC20 tokens contract\r\n  mapping (uint => Period) public periods;\r\n  uint public period_count;\r\n  uint public current_period;\r\n  uint public current_transferred;  //amount of transferred tokens in the current period\r\n\r\n  /*\r\n  *  Modifiers\r\n  */\r\n  modifier ownerExists(address owner) \r\n  {\r\n    require(is_owner[owner]);\r\n    _;\r\n  }\r\n\r\n  modifier transactionExists(uint transaction_id) \r\n  {\r\n    require(transactions[transaction_id].to != 0);\r\n    _;\r\n  }\r\n\r\n  modifier confirmed(uint transaction_id, address owner)\r\n  {\r\n    require(confirmations[transaction_id][owner]);\r\n    _;\r\n  }\r\n\r\n  modifier notConfirmed(uint transaction_id, address owner)\r\n  {\r\n    require(!confirmations[transaction_id][owner]);\r\n    _;\r\n  }\r\n\r\n  modifier notExecuted(uint transaction_id)\r\n  {\r\n    require(!transactions[transaction_id].executed);\r\n    _;\r\n  }\r\n\r\n  modifier ownerOrWallet(address owner)\r\n  {\r\n    require (msg.sender == address(this) || is_owner[owner]);\r\n    _;\r\n  }\r\n\r\n  modifier notNull(address _address)\r\n  {\r\n    require(_address != 0);\r\n    _;\r\n  }\r\n\r\n  /// @dev Fallback function: don't accept ETH\r\n  function()\r\n    public\r\n    payable\r\n  {\r\n    revert();\r\n  }\r\n\r\n  /*\r\n  * Public functions\r\n  */\r\n  /// @dev Contract constructor sets initial owners, required number of confirmations, initial periods' parameters and token address.\r\n  /// @param _owners List of initial owners.\r\n  /// @param _required Number of required confirmations.\r\n  /// @param _timestamps Timestamps of initial periods.\r\n  /// @param _limits Limits of initial periods. The length of _limits must be the same as _timestamps.\r\n  /// @param _erc20_contract Address of the ERC20 tokens contract.\r\n  function MultiSigWalletTokenLimit(address[] _owners, uint _required, uint[] _timestamps, uint[] _limits, ERC20 _erc20_contract)\r\n    public\r\n  {\r\n    for (uint i = 0; i < _owners.length; i++)\r\n    {\r\n      require(!is_owner[_owners[i]] && _owners[i] != 0);\r\n      is_owner[_owners[i]] = true;\r\n    }\r\n    owners = _owners;\r\n    required = _required;\r\n\r\n    periods[0].timestamp = 2**256 - 1;\r\n    periods[0].limit = 2**256 - 1;\r\n    uint total_limit = 0;\r\n    for (i = 0; i < _timestamps.length; i++)\r\n    {\r\n      periods[i + 1].timestamp = _timestamps[i];\r\n      periods[i + 1].current_limit = _limits[i];\r\n      total_limit = total_limit.add(_limits[i]);\r\n      periods[i + 1].limit = total_limit;\r\n    }\r\n    period_count = 1 + _timestamps.length;\r\n    current_period = 0;\r\n    if (_timestamps.length > 0)\r\n      current_period = 1;\r\n    current_transferred = 0;\r\n\r\n    erc20_contract = _erc20_contract;\r\n  }\r\n\r\n  /// @dev Allows an owner to submit and confirm a send tokens transaction.\r\n  /// @param to Address to transfer tokens.\r\n  /// @param value Amout of tokens to transfer.\r\n  /// @return Returns transaction ID.\r\n  function submitTransaction(address to, uint value)\r\n    public\r\n    notNull(to)\r\n    returns (uint transaction_id)\r\n  {\r\n    transaction_id = addTransaction(to, value);\r\n    confirmTransaction(transaction_id);\r\n  }\r\n\r\n  /// @dev Allows an owner to confirm a transaction.\r\n  /// @param transaction_id Transaction ID.\r\n  function confirmTransaction(uint transaction_id)\r\n    public\r\n    ownerExists(msg.sender)\r\n    transactionExists(transaction_id)\r\n    notConfirmed(transaction_id, msg.sender)\r\n  {\r\n    confirmations[transaction_id][msg.sender] = true;\r\n    emit Confirmation(msg.sender, transaction_id);\r\n    executeTransaction(transaction_id);\r\n  }\r\n\r\n  /// @dev Allows an owner to revoke a confirmation for a transaction.\r\n  /// @param transaction_id Transaction ID.\r\n  function revokeConfirmation(uint transaction_id)\r\n    public\r\n    ownerExists(msg.sender)\r\n    confirmed(transaction_id, msg.sender)\r\n    notExecuted(transaction_id)\r\n  {\r\n    confirmations[transaction_id][msg.sender] = false;\r\n    emit Revocation(msg.sender, transaction_id);\r\n  }\r\n\r\n  function executeTransaction(uint transaction_id)\r\n    public\r\n    ownerExists(msg.sender)\r\n    confirmed(transaction_id, msg.sender)\r\n    notExecuted(transaction_id)\r\n  {\r\n    if (isConfirmed(transaction_id))\r\n    {\r\n      Transaction storage txn = transactions[transaction_id];\r\n      txn.executed = true;\r\n      if (transfer(txn.to, txn.value))\r\n        emit Execution(transaction_id);\r\n      else\r\n      {\r\n        emit ExecutionFailure(transaction_id);\r\n        txn.executed = false;\r\n      }\r\n    }\r\n  }\r\n\r\n  /// @dev Returns the confirmation status of a transaction.\r\n  /// @param transaction_id Transaction ID.\r\n  /// @return Confirmation status.\r\n  function isConfirmed(uint transaction_id)\r\n    public\r\n    view\r\n    returns (bool)\r\n  {\r\n    uint count = 0;\r\n    for (uint i = 0; i < owners.length; i++)\r\n    {\r\n      if (confirmations[transaction_id][owners[i]])\r\n        ++count;\r\n    if (count >= required)\r\n      return true;\r\n    }\r\n  }\r\n\r\n  /*\r\n   * Internal functions\r\n   */\r\n  /// @dev Adds a new transaction to the transaction mapping, if transaction does not exist yet.\r\n  /// @param to Address to transfer tokens.\r\n  /// @param value Amout of tokens to transfer.\r\n  /// @return Returns transaction ID.\r\n  function addTransaction(address to, uint value)\r\n    internal\r\n    returns (uint transaction_id)\r\n  {\r\n    transaction_id = transaction_count;\r\n    transactions[transaction_id] = Transaction({\r\n      to: to,\r\n      value: value,\r\n      executed: false\r\n    });\r\n    ++transaction_count;\r\n    emit Submission(transaction_id);\r\n  }\r\n\r\n  /*\r\n   * Web3 call functions\r\n   */\r\n  /// @dev Returns number of confirmations of a transaction.\r\n  /// @param transaction_id Transaction ID.\r\n  /// @return Number of confirmations.\r\n  function getConfirmationCount(uint transaction_id)\r\n    public\r\n    view\r\n    returns (uint count)\r\n  {\r\n    for (uint i = 0; i < owners.length; i++)\r\n      if (confirmations[transaction_id][owners[i]])\r\n        ++count;\r\n  }\r\n\r\n  /// @dev Returns total number of transactions after filers are applied.\r\n  /// @param pending Include pending transactions.\r\n  /// @param executed Include executed transactions.\r\n  /// @return Total number of transactions after filters are applied.\r\n  function getTransactionCount(bool pending, bool executed)\r\n    public\r\n    view\r\n    returns (uint count)\r\n  {\r\n    for (uint i = 0; i < transaction_count; i++)\r\n      if (pending && !transactions[i].executed\r\n        || executed && transactions[i].executed)\r\n        ++count;\r\n  }\r\n\r\n  /// @dev Returns list of owners.\r\n  /// @return List of owner addresses.\r\n  function getOwners()\r\n    public\r\n    view\r\n    returns (address[])\r\n  {\r\n    return owners;\r\n  }\r\n\r\n  /// @dev Returns array with owner addresses, which confirmed transaction.\r\n  /// @param transaction_id Transaction ID.\r\n  /// @return Returns array of owner addresses.\r\n  function getConfirmations(uint transaction_id)\r\n    public\r\n    view\r\n    returns (address[] _confirmations)\r\n  {\r\n    address[] memory confirmations_temp = new address[](owners.length);\r\n    uint count = 0;\r\n    uint i;\r\n    for (i = 0; i < owners.length; i++)\r\n      if (confirmations[transaction_id][owners[i]])\r\n      {\r\n        confirmations_temp[count] = owners[i];\r\n        ++count;\r\n      }\r\n      _confirmations = new address[](count);\r\n      for (i = 0; i < count; i++)\r\n        _confirmations[i] = confirmations_temp[i];\r\n  }\r\n\r\n  /// @dev Returns list of transaction IDs in defined range.\r\n  /// @param from Index start position of transaction array.\r\n  /// @param to Index end position of transaction array.\r\n  /// @param pending Include pending transactions.\r\n  /// @param executed Include executed transactions.\r\n  /// @return Returns array of transaction IDs.\r\n  function getTransactionIds(uint from, uint to, bool pending, bool executed)\r\n    public\r\n    view\r\n    returns (uint[] _transaction_ids)\r\n  {\r\n    uint[] memory transaction_ids_temp = new uint[](transaction_count);\r\n    uint count = 0;\r\n    uint i;\r\n    for (i = 0; i < transaction_count; i++)\r\n      if (pending && !transactions[i].executed\r\n        || executed && transactions[i].executed)\r\n      {\r\n        transaction_ids_temp[count] = i;\r\n        ++count;\r\n      }\r\n      _transaction_ids = new uint[](to - from);\r\n      for (i = from; i < to; i++)\r\n        _transaction_ids[i - from] = transaction_ids_temp[i];\r\n  }\r\n\r\n  /// @dev Fallback function which is called by tokens contract after transferring tokens to this wallet.\r\n  /// @param from Source address of the transfer.\r\n  /// @param value Amount of received ERC20 tokens.\r\n  function tokenFallback(address from, uint value, bytes)\r\n    public\r\n  {\r\n    require(msg.sender == address(erc20_contract));\r\n    emit TokensReceived(from, value);\r\n  }\r\n\r\n  /// @dev Returns balance of the wallet\r\n  function getWalletBalance()\r\n    public\r\n    view\r\n    returns(uint)\r\n  { \r\n    return erc20_contract.balanceOf(this);\r\n  }\r\n\r\n  /// @dev Updates current perriod: looking for a period with a minimmum date(timestamp) that is greater than now.\r\n  function updateCurrentPeriod()\r\n    public\r\n    ownerOrWallet(msg.sender)\r\n  {\r\n    uint new_period = 0;\r\n    for (uint i = 1; i < period_count; i++)\r\n      if (periods[i].timestamp > now && periods[i].timestamp < periods[new_period].timestamp)\r\n        new_period = i;\r\n    if (new_period != current_period)\r\n    {\r\n      current_period = new_period;\r\n      emit CurrentPeriodChanged(current_period, current_transferred, periods[current_period].limit);\r\n    }\r\n  }\r\n\r\n  /// @dev Transfers ERC20 tokens from the wallet to a given address\r\n  /// @param to Address to transfer.\r\n  /// @param value Amount of tokens to transfer.\r\n  function transfer(address to, uint value) \r\n    internal\r\n    returns (bool)\r\n  {\r\n    updateCurrentPeriod();\r\n    require(value <= getWalletBalance() && current_transferred.add(value) <= periods[current_period].limit);\r\n\r\n    if (erc20_contract.transfer(to, value)) \r\n    {\r\n      current_transferred = current_transferred.add(value);\r\n      emit Transfer(to, value);\r\n      return true;\r\n    }\r\n\r\n    return false;\r\n  }\r\n\r\n}\r\n",
  "sourcePath": "C:\\Projects\\eth_multisig\\contracts\\MultiSigWalletTokenLimit.sol",
  "compiler": {
    "name": "solc",
    "version": "0.4.21+commit.dfe3193c.Emscripten.clang"
  },
  "schemaVersion": "2.0.0",
  "updatedAt": "2018-04-21T17:14:41.006Z"
}